:020000040800F2
:1000000000500020ED2B0008452B0008472B00086E
:10001000492B00084B2B00084D2B00080000000066
:100020000000000000000000000000004F2B00084E
:10003000512B000800000000532B0008552B00082E
:10004000352C0008352C0008352C0008352C00080C
:10005000352C0008352C0008352C0008352C0008FC
:10006000352C0008352C0008352C0008592B0008C9
:10007000352C0008352C0008652B0008712B000872
:10008000352C0008352C00087D2B0008352C000885
:10009000352C0008352C0008352C0008352C0008BC
:1000A000352C0008352C0008352C0008352C0008AC
:1000B000892B0008352C0008352C0008352C000849
:1000C000352C0008352C0008352C0008352C00088C
:1000D000352C0008952B0008352C0008352C00081D
:1000E000352C0008352C0008352C000800000000D5
:1000F0000000000000000000000000000000000000
:0C01000000000000000000005FF808F1A3
:10010C0010B5054C237833B9044B13B10448AFF345
:10011C0000800123237010BD0C00002000000000A3
:10012C00902C000808B5034B1BB103490348AFF3EF
:10013C00008008BD0000000010000020902C00087A
:10014C0038B50E4B054618784FF47A73B3FBF0F3C1
:10015C000B4A1068B0FBF3F000F00CFC044658B9E5
:10016C000F2D09D8024629464FF0FF3000F0C2FB94
:10017C00044B20461D6038BD012038BD0000002016
:10018C000800002004000020074A08B5136803206B
:10019C0043F01003136000F09BFB0020FFF7D0FF2F
:1001AC0002F060FB002008BD00200240034A044B13
:1001BC0011681B780B441360704700BF2C000020A3
:1001CC0000000020014B1868704700BF2C00002075
:1001DC0038B50446FFF7F6FF0546631C1EBF044BFB
:1001EC001B78E418FFF7EEFF401B8442FAD838BDA9
:1001FC0000000020436A10B59A6A12F0500F1BD110
:10020C009A6A42F400729A621A68926802F4602246
:10021C00B2F5602F0CD1DA6852B99A6A22F4807266
:10022C009A629A6AD2045EBF9A6A42F001029A629A
:10023C00184601F0CFFF10BD1B6ABDE810401B6BC8
:10024C001847704708B5406AFFF7FBFF08BD7047B9
:10025C00036810B55A680446900627D51A689107AA
:10026C0024D5A26AD2065EBFA26A42F40072A262D0
:10027C009A6802F46022B2F5602F10D1E26872B96C
:10028C005A6822F020025A60A36A23F48073A36296
:10029C00A36ADB045EBFA36A43F00103A36220469A
:1002AC0001F098FF6FF0120223681A6023685A68F5
:1002BC00100630D51A6851072DD5A26AD2065EBF3A
:1002CC00A26A42F40052A2629A6802F4E042B2F5C9
:1002DC00E04F0AD05A68500516D49A6802F460228E
:1002EC00B2F5602F10D1E26872B95A6822F0800220
:1002FC005A60A36A23F48053A362A36AD9055EBF34
:10030C00A36A43F00103A362204600F0DFFA6FF00A
:10031C000C0223681A6023685A6852060DD51B68B4
:10032C00DB070AD5A36A204643F48033A362FFF7A8
:10033C008EFF6FF0010223681A6010BD7047406A8F
:10034C0008B5836A43F040038362C36A43F0040335
:10035C00C362FFF7F3FF08BD002373B5019390F858
:10036C002430012B74D001234D6880F82430062DE5
:10037C0002684FEA85030C6825D82B441F25566B61
:10038C00053B9D4026EA050504FA03F32B43536312
:10039C00092C4FEA44038D682FD907262344D168D2
:1003AC001E3B9E4021EA060105FA03F30B43D36082
:1003BC00A4F11003012B2BD90023002280F8242058
:1003CC00184602B070BD0C2D0BD82B441F25166B94
:1003DC00233B9D4026EA050504FA03F32B431363E4
:1003EC00D6E72B441F25D66A413B9D4026EA0505DE
:1003FC0004FA03F32B43D362CAE70726116923449B
:10040C009E4021EA060105FA03F30B431361CFE783
:10041C00104B9A4216D193681B02CDD49368102CC2
:10042C0043F400039360C7D10B4B0C4A1B68B3FB1E
:10043C00F2F20A2353430193019B002BBCD0019B86
:10044C00013BF8E7836A43F0200383620123B4E79E
:10045C000223B5E7002401400800002040420F00B1
:10046C00002373B50193036804469A68D20702D53A
:10047C00002002B070BD9A6842F001029A60124BE3
:10048C00124A1B68B3FBF2F30193019BC3B9FFF74C
:10049C0099FE064623689D6815F00105E8D1FFF723
:1004AC0091FE801B0228F5D9A36A84F8245043F0EE
:1004BC001003A362E36A012043F00103E362D8E76F
:1004CC00019B013BE0E700BF0800002040420F0009
:1004DC0090F8243010B5012B044658D0012380F835
:1004EC002430FFF7BDFF00284DD1A36A294A23F41D
:1004FC00706323F0010343F48073A3622368934277
:10050C0004D125494A6812F4702F32D1A26A22F420
:10051C008012A2625A68520541BFA26A22F440526C
:10052C0042F48052A262A26A12F480521CBFE26AA8
:10053C0022F00602E262002284F824206FF002020C
:10054C001A605A6842F020025A609A6802F46022DB
:10055C00B2F5602F13D10F4A934205D1A2F58062F8
:10056C00526812F4702F0AD19A6842F4A0029A6071
:10057C0010BDA26A42F48012A2624A68CBE79A6864
:10058C0042F48012F3E7002384F8243010BD0220DB
:10059C0010BD00BF00280140002401402DE9D841C6
:1005AC009046404B026804469A420F4602D03E49A0
:1005BC008A4203D15B6813F4702F6ED194F8243007
:1005CC00012B6CD00123204684F82430FFF748FF20
:1005DC00064600285DD1A06A216820F47060324B79
:1005EC0020F0010040F480709942A06204D12D4AA1
:1005FC00536813F4702F3ED1A36A23F48013A362C3
:10060C004B685A0505D5A36A23F4405343F4805331
:10061C00A362A36A206A13F4805318BFE36A3A46B4
:10062C0018BF23F00603E362002384F824301F4B29
:10063C004C3183621E4BC3621E4B03636FF002038B
:10064C0041F84C3C51F8443C43F4807341F8443C31
:10065C00434600F0D5F923689A6802F46022B2F59B
:10066C00602F9A680CBF42F4A00242F480129A6088
:10067C003046BDE8D881A36A43F48013A362536863
:10068C005B0541BFA06A20F4405040F48050A0624A
:10069C00BFE7002384F82430EAE70126E8E70226C6
:1006AC00E6E700BF002401400028014001020008D9
:1006BC00510200084B03000838B5036804469A68D9
:1006CC00D20701D4002038BD9A6822F001029A604A
:1006DC00FFF778FD054623689B68DB07F2D5FFF72B
:1006EC0071FD401B0228F6D9A36A012043F01003C8
:1006FC00A362E36A43F00103E36238BD70B50446BC
:10070C00002871D0836A23B9C36280F8243002F0C8
:10071C00CBF82046FFF7D0FFA36A13F0100FA36AA3
:10072C0064D1002862D1E16923F48853626823F014
:10073C00020343F002030A43A168A362E368B1F524
:10074C00807F42EA430238D0012914BF06464FF499
:10075C0080766569012D07D1002B30D1A369013B4F
:10076C0046EA433545F400662368B1F5807F5D6841
:10077C0025F4694545EA06055D609E681D4D05EA50
:10078C00060545EA02059D6001D0012920D12169A9
:10079C0001390905DD6A25F470052943D962996888
:1007AC00154B0B409A4215D10023E362A36A23F048
:1007BC00030343F00103A36270BD0E46C9E7A36AAD
:1007CC0043F02003A362E36A43F00103E362CBE747
:1007DC000021DFE7A36A23F0120343F01003A362A6
:1007EC00E36A43F00103E362012070BD43F01003A0
:1007FC00A362F9E7FDF7E1FFFE0E1FFF002373B5BF
:10080C00019390F824300446012B5AD0012380F830
:10081C002430FFF751FF0546002832D1A36A02208D
:10082C0023F4885323F0020343F00203A362264B04
:10083C001E6800F0FBFDB6FBF0F040000190019B40
:10084C001BBB2046FFF70CFE2268936843F008039D
:10085C009360FFF7B7FC064623689A68120718D412
:10086C009A6842F004029A60FFF7ACFC06462368D3
:10087C009B685B071FD4A36A23F0030343F00103B7
:10088C00A362002384F8243012E0019B013B019306
:10089C00D5E7FFF797FC801B0A28DDD9A36A012551
:1008AC0023F0120343F01003A362002384F82430D6
:1008BC00284602B070BDFFF785FC801B0A28D6D9EC
:1008CC00ECE70225F4E700BF0800002070470000A9
:1008DC00074A0002D36800F4E06023F4E0631B04D1
:1008EC001B0C43F0BF6343F400330343D3607047E6
:1008FC0000ED00E0174B30B5DC68C4F30224C4F102
:10090C000703251D042B28BF0423062D4FF00105DA
:10091C0098BF002405FA03F303F1FF3388BF033CAF
:10092C001940A14005FA04F4013C2240002842EA97
:10093C0001024FEA0212AFBF00F16040064B00F01B
:10094C000F00D2B2A5BFD2B200F561401A5480F8A4
:10095C00002330BD00ED00E014ED00E0012342095E
:10096C0000F01F0003FA00F0014B43F8220070471F
:10097C0000E100E00138B0F1807F0AD2F021064B93
:10098C00064A586082F823100020072298601A60EB
:10099C0070470120704700BF10E000E000ED00E060
:1009AC0010B530B314220168134B84680B44B3FBAD
:1009BC00F2F39B000364114B0A68C363436822F48F
:1009CC007F522343C46822F030022343046923433B
:1009DC004469234384692343C469234313430B6051
:1009EC000122002380F82120836380F820301846F0
:1009FC0010BD012010BD00BFF8FFFDBF000002407C
:100A0C00F0B590F82040012C35D0012490F82150FD
:100A1C0080F82040A5424FF000064FF0020428D188
:100A2C0080F82140046886632668076C26F001066E
:100A3C002660C66BBD407560636043680568102B0B
:100A4C00C36A0BBFA260A160E160E2604BB1236896
:100A5C0043F00E0323602B68002043F001032B604E
:100A6C00F0BD236823F004032360236843F00A03DA
:100A7C00F0E780F820600220F0BD000090F82130F3
:100A8C0010B5022B03D004238363012010BD03682F
:100A9C001A6822F00E021A601A6822F001021A601B
:100AAC00184A93421FD0143293421ED014329342F0
:100ABC001DD0143293421DD0143293421DD01432E7
:100ACC0093420CBF4FF480134FF080730E4A0024F6
:100ADC005360012380F82130436B80F820407BB1B8
:100AEC009847204610BD0123F0E71023EEE74FF4A2
:100AFC008073EBE74FF48053E8E74FF48033E5E77E
:100B0C00184610BD080002400000024070B40425D5
:100B1C00C66B026C3468036895402542196832D064
:100B2C004D0730D51A6896065EBF1A6822F004028B
:100B3C001A603E4A934219D01432934218D01432A0
:100B4C00934217D01432934217D01432934217D0D9
:100B5C00143293420CBF4FF480034FF08063344A3D
:100B6C005360C36A002B5ED070BC18470423F6E7B1
:100B7C004023F4E74FF48063F1E74FF48043EEE752
:100B8C004FF48023EBE702259540254235D08D07A5
:100B9C0033D51A68940606D41A6822F00A021A6031
:100BAC00012280F82120214A934219D01432934219
:100BBC0018D01432934217D01432934217D01432F7
:100BCC00934217D0143293420CBF4FF400134FF0E2
:100BDC000073174A5360002380F82030836AC1E702
:100BEC000223F6E72023F4E74FF40073F1E74FF408
:100BFC000053EEE74FF40033EBE708259540254210
:100C0C0011D009070FD5196821F00E0119600123C5
:100C1C0003FA02F27260836380F82130002380F8BB
:100C2C002030036B9EE770BC704700BF0800024089
:100C3C00000002402DE9F74F00221646654BDFF805
:100C4C00A4E1DFF8A4C14FF001080C6808FA06F81B
:100C5C0008EA0404A0457FD14D68122D00F0AF8046
:100C6C0000F28880022D00F0A7807CD8002D00F0C7
:100C7C008E80012D00F09E804FF00F09FF2C93BF4A
:100C8C00824606F18045083DD0F800B092BFB50011
:100C9C00D0F804B0AD0009FA05F82BEA080802FAFE
:100CAC0005F588BF00F1040A48EA0505CAF80050AA
:100CBC00D1F804A01AF0805F4ED0474D464FAD6975
:100CCC0026F0030845F00105BD61BD6908F18048B7
:100CDC0005F00105019508F5803806F0030B019D20
:100CEC004FEA8B0BD8F8085009FA0BF925EA0909D9
:100CFC003A4DA84268D005F58065A84266D005F546
:100D0C008065A84264D005F58065A8420CBF032518
:100D1C00042505FA0BF545EA0905C8F808501D68C5
:100D2C001AF4803F14BF2543A5431D605D681AF477
:100D3C00003F14BF2543A5435D609D681AF4801FD6
:100D4C0014BF2543A5439D60DD681AF4001F14BF32
:100D5C002C4325EA0404DC600136102E7FF473AFBB
:100D6C0003B0BDE8F08F032D22D0112D84D1CA68B9
:100D7C00043281E71A4FBD4209D012D8DFF86C90CB
:100D8C004D4504D009F580394D457FF475AF8A681F
:100D9C00C2B1012A0CBFC0F81080C0F81480082220
:100DAC006AE77545F3D06545F1D0DFF84490EBE781
:100DBC00002261E7CA685FE7CA6808325CE7CA6864
:100DCC000C3259E7042257E70025A2E70125A0E7DA
:100DDC0002259EE70004014000100240000801407B
:100DEC000000211000003110000032100000111022
:100DFC00000022100AB1016170470904FBE7C368C7
:100E0C005940C1607047000003682DE9F341DB07CE
:100E1C00054610D42B689F075ED42B68190700F188
:100E2C0095802B685A0700F1BF80EA69002A40F0D0
:100E3C002D81002014E0904C636803F00C03042B0C
:100E4C0007D0636803F00C03082B0CD16368DE0336
:100E5C0009D523689C03DDD56B68002BDAD1012002
:100E6C0002B0BDE8F0816B68B3F5803F10D1236808
:100E7C0043F480332360FFF7A5F9064623689803F3
:100E8C00C8D4FFF79FF9801B6428F7D90320E7E744
:100E9C009BB9236823F480332360236823F48023D5
:100EAC002360FFF78FF9064623689903B2D5FFF745
:100EBC0089F9801B6428F7D9E8E7B3F5A02F2368DC
:100ECC0003D143F480232360D1E723F480332360E0
:100EDC00236823F48023CDE7674C636813F00C0F71
:100EEC0007D0636803F00C03082B10D16368DA0396
:100EFC000DD423689B0702D52B69012BAFD1236836
:100F0C006A6923F0F80343EAC203236085E72A6980
:100F1C005A4B6AB101221A60FFF754F9064623684E
:100F2C009F07ECD4FFF74EF9801B0228F7D9ADE7E9
:100F3C001A60FFF747F90646236898077FF56DAFEF
:100F4C00FFF740F9801B0228F6D99FE7AA694A4CA3
:100F5C004B4BDAB101221A60FFF734F90646636A8B
:100F6C009B070DD54FF4FA52464B1B68B3FBF2F3BB
:100F7C00019300BF019B5A1E0192002BF9D150E73F
:100F8C00FFF720F9801B0228E9D97FE71A60FFF7E9
:100F9C0019F90646636A9F077FF543AFFFF712F90D
:100FAC00801B0228F6D971E7334CE369D80024D4AE
:100FBC000127E36943F08053E361E36903F0805355
:100FCC000093009B304E3368D90518D5EB68012B84
:100FDC0026D1236A43F001032362FFF7F3F841F2B1
:100FEC0088368046236A9B073FD5002F3FF41DAF00
:100FFC00E36923F08053E36117E70027E2E73368E6
:10100C0043F480733360FFF7DDF880463368DA050C
:10101C00DCD4FFF7D7F8A0EB08006428F6D935E745
:10102C00ABB9236A41F2883823F001032362236AA7
:10103C0023F004032362FFF7C5F80646236A9807DA
:10104C00D3D5FFF7BFF8801B4045F7D91EE7052B1A
:10105C00236A03D143F004032362BAE723F00103AC
:10106C002362236A23F00403B6E7FFF7ABF8A0EB87
:10107C000800B042B6D909E7001002400000424215
:10108C00800442420800002000700040224C63683B
:10109C0003F00C03082B3FF4E2AE00231F4E022A90
:1010AC0033602BD1FFF78EF80746236899011FD4C4
:1010BC002B6AB3F5803F05D16268A96822F400322F
:1010CC000A436260696A62680B4322F47412134328
:1010DC00636001233360FFF775F8054623689A01B6
:1010EC003FF5A7AEFFF76EF8401B0228F6D9CDE608
:1010FC00FFF768F8C01B0228D7D9C7E6FFF762F8DC
:10110C00054623689B017FF594AEFFF75BF8401B07
:10111C000228F6D9BAE600BF001002406000424235
:10112C0030B5194B87B002AC03F110052246186894
:10113C005968083303C2AB421446F7D101238DF82A
:10114C000430022311498DF805304B6803F00C0272
:10115C00082A17D1C3F3834206A80244DB0312F812
:10116C00102C0CD54B680A48C3F34043504306AAD5
:10117C00134413F8143CB0FBF3F007B030BD054832
:10118C005043FAE70248F8E7A82C00080010024088
:10119C0000127A0000093D00544A2DE9F041136811
:1011AC00054603F007038B420E462AD329688C07A9
:1011BC0034D4CA0747D44D4A136803F007039E4240
:1011CC00C0F082802A684A4C12F0040F40F08780ED
:1011DC00130706D563682A6923F4605343EAC203F4
:1011EC006360FFF79DFF6368424AC3F30313D35C4C
:1011FC00D840414B18600020FEF7A2FF0020BDE84C
:10120C00F081136823F007030B431360136803F09A
:10121C0007039942CAD00120BDE8F081344B11F08C
:10122C00040F1EBF5A6842F4E0625A60080742BFBE
:10123C005A6842F460525A605A68A86822F0F00268
:10124C0002435A60B5E76A68294C012A23681CD10D
:10125C0013F4003FDFD0636841F2883823F00303B6
:10126C0013436360FEF7AEFF6B680746012B14D186
:10127C00636803F00C03042B9DD0FEF7A3FFC01B87
:10128C004045F5D90320BDE8F081022A02D113F0C4
:10129C00007FDFE713F0020FDCE7022B0FD163684E
:1012AC0003F00C03082B86D0FEF78CFFC01B4045C7
:1012BC00F5D9E7E7FEF786FFC01B4045E2D8636827
:1012CC0013F00C0FF6D176E7136823F007033343C2
:1012DC001360136803F007039E429CD172E76368A6
:1012EC00E96823F4E0630B43636071E7002002407C
:1012FC0000100240C82C000808000020044B054ACE
:10130C005B68C3F30223D35C034A1068D840704770
:10131C0000100240D82C000808000020044B054A9D
:10132C005B68C3F3C223D35C034A1068D840704790
:10133C0000100240D82C00080800002003682DE99A
:10134C00F341D907054620D5354CE369DA0032D490
:10135C000127E36943F08053E361E36903F08053B1
:10136C000193019B2F4E3368DB0526D5236A13F4BA
:10137C00407336D1236A6A6823F4407313432362A3
:10138C001FB1E36923F08053E3612868830706D516
:10139C00234AA968536823F440430B43536010F06D
:1013AC0010001BD01E4AE9685368002023F4800308
:1013BC000B43536012E00027D4E7336843F4807387
:1013CC003360FEF7FFFE80463368D805CED4FEF7B7
:1013DC00F9FEA0EB08006428F6D9032002B0BDE8A2
:1013EC00F0816A6802F440729342C3D001200E4A25
:1013FC00236A1060002023F4407110602162D90729
:10140C00B8D5FEF7DFFE41F288380646236A9A0704
:10141C00B0D4FEF7D7FE801B4045F7D9DDE700BFFF
:10142C0000100240007000404004424270B5044677
:10143C00354B86B002AD03F110062A461868596880
:10144C00083303C2B3421546F7D101238DF804309B
:10145C0002239C428DF8053047D0102C17D0012C5C
:10146C004FD140F20231294A136A1940B1F5817FFC
:10147C0044D003F44073B3F5007F2DD149F64040BE
:10148C00536A13F0020F08BF002006B070BD1F4B4B
:10149C005968186810F08070F7D0C1F3834206A821
:1014AC00024412F8100CCA0341BF5A6806A9C2F3D1
:1014BC004042521844BF12F8141C154A5B684CBFCA
:1014CC00B2FBF1F2134A5B0202FB00F0DDD4032302
:1014DC004000B0FBF3F0D8E7B3F5407F11D11368AF
:1014EC004FF2244013F4003FCDE7FFF717FF074BF3
:1014FC005B68C3F3813301335B00EAE74FF40040D0
:10150C00C3E70020C1E700BFB82C00080010024060
:10151C0000127A0000093D00036A70B523F0010344
:10152C000362036A446882690D6822F073022A43DD
:10153C008D6823F002032B430A4DA8420BD1CD68D2
:10154C0023F008032B438E694D6924F44074354312
:10155C0023F004032C43446082614A6842630362B3
:10156C0070BD00BF002C0140036A70B523F480737A
:10157C000362036A4468C2690D6822F073022A434D
:10158C008D6823F4007343EA05230B4DA8420DD15B
:10159C00CD6823F4006343EA05238E694D6924F476
:1015AC004054354323F4806344EA05144460C2611B
:1015BC004A68C263036270BD002C0140036A30B5F7
:1015CC0023F480530362036A4468C2690D6822F4F1
:1015DC00E64242EA05228D6823F4005343EA0533C0
:1015EC00064DA84202BF4D6924F4804444EA851498
:1015FC004460C2614A680264036230BD002C014041
:10160C007047704790F83C3070B5012B4FF00203D7
:10161C001CD0012280F83D30036880F83C209A6889
:10162C0022F47F4222F077029A600A68402A79D02D
:10163C0019D8102A00F093800AD8002A00F089806B
:10164C00012380F83D30002380F83C30184670BDF3
:10165C00202A00F08A80302AF2D19A6822F0700297
:10166C0042F0370236E0702A36D01BD8502A42D0CE
:10167C00602AE5D11C6A4D6824F01004CE681C6207
:10168C0099691A6A21F4704122F0A00242EA05120B
:10169C0041EA063199611A629A6822F0700242F0AE
:1016AC00670217E0B2F5805F11D0B2F5005FC7D1C9
:1016BC008A684D689C68C9682A4324F47F4442EACE
:1016CC00012222439A609A6842F4804202E09A68AE
:1016DC0022F007029A60B3E78A684D689C68C96873
:1016EC002A4324F47F4442EA012222439A609A68F6
:1016FC0042F07702EEE74C68CE68196A1D6A21F059
:10170C000A0125F001051D629A69214322F0F002BD
:10171C0042EA06129A6119629A6822F0700242F04B
:10172C005702D7E74C68CE68196A1D6A21F00A0186
:10173C0025F001051D629A69214322F0F00242EA6C
:10174C0006129A6119629A6822F0700242F04702FE
:10175C00C0E79A6822F0700242F00702BAE79A6872
:10176C0022F0700242F01702B4E79A6822F070027D
:10177C0042F02702AEE77047704770477047036826
:10178C0010B51A69044691070ED5DA6892070BD585
:10179C006FF002021A6101229B6902779B0777D0D6
:1017AC00FFF7EAFF0023237723681A69500710D547
:1017BC00DA6851070DD56FF004021A6102229B6999
:1017CC00227713F4407F204668D0FFF7D5FF002323
:1017DC00237723681A6912070FD5DA6810070CD51E
:1017EC006FF008021A610422DB6922779907204600
:1017FC005AD0FFF7C1FF0023237723681A69D2065A
:10180C0010D5DA68D0060DD56FF010021A610822D7
:10181C00DB69227713F4407F20464BD0FFF7ACFFF7
:10182C000023237723681A69D10708D5DA68D20711
:10183C0005D56FF0010220461A6100F097FE23686F
:10184C001A69100608D5DA68110605D56FF0800202
:10185C0020461A6100F019FA23681A69520608D555
:10186C00DA68500605D56FF0400220461A61FFF782
:10187C0085FF23681A69910622D5DA6892061FD56E
:10188C006FF020022046BDE810401A6100F0FCB950
:10189C00FFF771FF2046FFF770FF83E7FFF76BFF41
:1018AC002046FFF76AFF92E7FFF765FF2046FFF738
:1018BC0064FFA0E7FFF75FFF2046FFF75EFFAFE78F
:1018CC0010BD00001A4A036890420AD0B0F1804F54
:1018DC0007D0A2F59432904203D002F58062904278
:1018EC0015D14A6823F070031343114A90420AD071
:1018FC00B0F1804F07D0A2F59432904203D002F59C
:10190C008062904203D1CA6823F4407313434A693E
:10191C0023F08003134303608B68C3620B688362FC
:10192C00034B984204BF0B69036301234361704767
:10193C00002C014010B50446A0B190F83D3003F0E6
:10194C00FF021BB980F83C2001F002F8022320684A
:10195C0084F83D30211DFFF7B5FF0123002084F8EA
:10196C003D3010BD012010BD10B50446A0B190F85B
:10197C003D3003F0FF021BB980F83C20FFF740FE1E
:10198C000223206884F83D30211DFFF79BFF0123C3
:10199C00002084F83D3010BD012010BD10B5044668
:1019AC00A0B190F83D3003F0FF021BB980F83C2049
:1019BC00FFF727FE0223206884F83D30211DFFF736
:1019CC0081FF0123002084F83D3010BD012010BDA3
:1019DC00036A70B523F010030362036A44688269DA
:1019EC000D6822F4E64242EA05228D6823F02003BA
:1019FC0043EA05130B4DA8420DD1CD6823F08003AB
:101A0C0043EA05138E694D6924F44064354323F091
:101A1C00400344EA8504446082614A68826303623D
:101A2C0070BD00BF002C014038B590F83C30044626
:101A3C00012B4FF0020018D0012384F83D0084F8EC
:101A4C003C301D460C2A0BD8DFE802F0070A0A0AC4
:101A5C00100A0A0A140A0A0A18002068FFF75CFD2B
:101A6C00002084F83D5084F83C0038BD2068FFF716
:101A7C00AFFFF5E72068FFF777FDF1E72068FFF788
:101A8C009DFDEDE738B590F83C300446012B4FF046
:101A9C00020025D0012384F83D0084F83C300C2A48
:101AAC0018D8DFE802F0071717171E1717172F178C
:101ABC00171740002068FFF72FFD236809699A6902
:101ACC0042F008029A619A6922F004029A619A69BA
:101ADC000A439A610123002084F83D3084F83C00CD
:101AEC0038BD2068FFF774FF236809699A6942F4CE
:101AFC0000629A619A6922F480629A619A6942EA58
:101B0C000122E6E72068FFF72FFD23680969DA69EF
:101B1C0042F00802DA61DA6922F00402DA61DA6969
:101B2C000A43DA61D6E72068FFF748FD23680969A4
:101B3C00DA6942F40062DA61DA6922F48062DA610D
:101B4C00DA6942EA0122ECE710B50124036A8C4001
:101B5C0023EA04030362036A8A401A43026210BD3B
:101B6C0010B5044601220068FFF7EEFF2368064A11
:101B7C000020934202BF5A6C42F400425A641A6825
:101B8C0042F001021A6010BD002C014010B5044651
:101B9C000C290DD8DFE801F0070C0C0C1E0C0C0CFA
:101BAC00230C0C0C28000268D36843F00203D360AA
:101BBC0020680122FFF7C8FF23680E4A00209342D9
:101BCC0002BF5A6C42F400425A641A6842F0010295
:101BDC001A6010BD0268D36843F00403E7E702689B
:101BEC00D36843F00803E2E70268D36843F01003BC
:101BFC00DDE700BF002C014090F83C30012B1FD0DA
:101C0C00CB688A6823F4407313434A6823F48063D7
:101C1C0013430A6823F4006313430A6923F48053C3
:101C2C0013434A6923F4005313438A6923F4404352
:101C3C00134302685364002380F83C301846704705
:101C4C000220704790F83C3010B5012B4FF0020386
:101C5C0018D080F83D3003680C685A68496822F047
:101C6C0070025A605A6822435A609A6822F08002C5
:101C7C009A609A680A439A60012380F83D300023E9
:101C8C0080F83C30184610BD704770470368DA681E
:101C9C0022F49072DA605A6922F001025A61202310
:101CAC0080F83A30704700002DE9F0470568C268AB
:101CBC002B69016923F4405313432B618368EA6851
:101CCC000B43416922F4B05222F00C020B43134334
:101CDC00EB606B69826923F4407313436B61404B77
:101CEC0081469D424FF0190446D1FFF717FB04FBC8
:101CFC0000F3D9F804604FF06408B600B3FBF6F3B8
:101D0C00B3FBF8F31E01FFF709FB6043D9F804306D
:101D1C009B00B0FBF3F7FFF701FB6043D9F80430ED
:101D2C009B00B0FBF3F3B3FBF8F308FB13731B013D
:101D3C003233B3FBF8F303F0F007FFF7EFFA60432D
:101D4C00D9F804209200B0FBF2FAFFF7E7FA6043EF
:101D5C00D9F804309B00B0FBF3F3B3FBF8F308FBAA
:101D6C0013A31B013233B3FBF8F303F00F033B4314
:101D7C003344AB60BDE8F087FFF7C0FA04FB00F317
:101D8C00D9F804604FF06408B600B3FBF6F3B3FB6C
:101D9C00F8F31E01FFF7B2FA6043D9F804309B0048
:101DAC00B0FBF3F7FFF7AAFA6043D9F804309B00B5
:101DBC00B0FBF3F3B3FBF8F308FB13731B013233E3
:101DCC00B3FBF8F303F0F007FFF798FA6043D9F888
:101DDC0004209200B0FBF2FAFFF790FAB7E700BFCD
:101DEC000038014010B5044640B390F8393003F088
:101DFC00FF021BB980F8382000F024FE242322684F
:101E0C0084F83930D368204623F40053D360FFF7AD
:101E1C004BFF236800201A6922F490421A615A6918
:101E2C0022F02A025A61DA6842F40052DA60202366
:101E3C00E06384F8393084F83A3010BD012010BDCD
:101E4C0090F83930202B18D1A9B1A2B190F83830C4
:101E5C00012B12D0C28482840023212201620168EA
:101E6C00C36380F83920CA6880F8383042F08002A9
:101E7C00CA6018467047012070470220704790F8DE
:101E8C003A30202B20D1E9B1E2B190F83830012B57
:101E9C001AD0C285828500232222C36380F83A209F
:101EAC0002688162D16880F8383041F48071D16069
:101EBC005169184641F001015161D16841F020018E
:101ECC00D1607047012070470220704790F83A307B
:101EDC0010B5222B36D183680169B3F5805F026897
:101EEC00836A23D15268E9B9C2F3080223F8022BA2
:101EFC008362C48D013CA4B2C4858CB90368DA68D2
:101F0C0022F02002DA60DA6822F48072DA605A6910
:101F1C0022F001025A61202380F83A3000F046FB8F
:101F2C00002010BDD2B223F8012BE1E721B9591CD6
:101F3C00526881621A70DCE75268591C816202F0A7
:101F4C007F02F7E7022010BD70470000036870B5F0
:101F5C001A6804461607D9685D6907D196065AD5E2
:101F6C008D0658D5BDE87040FFF7B0BF15F00105E0
:101F7C0002D111F4907F4ED0D30705D5CE0542BFC8
:101F8C00E36B43F00103E363500704D51DB1E36B2E
:101F9C0043F00203E363930704D51DB1E36B43F0F5
:101FAC000403E363160704D51DB1E36B43F0080388
:101FBC00E363E36B002B66D0950604D5880602D547
:101FCC002046FFF783FF236820465D69E26B11070B
:101FDC0002D415F040051AD0FFF758FE23685A6951
:101FEC00520610D55A69606B22F040025A6150B10A
:101FFC00254B4363FEF742FD002844D0606BBDE8DF
:10200C007040436B18472046FFF79EFF70BDFFF7EB
:10201C009BFFE56370BD160627D50D0625D594F8F4
:10202C003920212A2FD1A268B2F5805F226A17D1FC
:10203C001188C1F308015960216979B90232226211
:10204C00E28C013A92B2E284EAB9DA6822F08002B8
:10205C00DA60DA6842F04002DA6070BD0132EEE715
:10206C00511C216212785A60EAE750060BD54A06D9
:10207C0009D5DA68204622F04002DA60202384F881
:10208C00393000F08DFA70BD9920000808B5002396
:10209C00406AC385C384FFF757FF08BD10B5134CC6
:1020AC0000211348FFF75CFD04212046FFF76EFD6D
:1020BC004FF4FA62236808219A632046FFF766FD05
:1020CC000C212046FFF762FD43F686522368094C2B
:1020DC00DA632046FEF792FB204610220649FEF7F3
:1020EC005DFA2046BDE81040FEF7F2B9E40000208E
:1020FC00A400002030000020240100200022134600
:10210C0010B5084C111949680832402A0B44F9D112
:10211C00DA08642353431B0BC3F164030380184692
:10212C0010BD00BF240100200022134610B50A4C3C
:10213C0054F832100132082A0B44F9D1DA084FF462
:10214C007A7353430A221B0B03EB4313B3FBF2F3D7
:10215C004380184610BD00BF2401002010B5044672
:10216C00FFF7E2FF40F2A463984294BF01230023DF
:10217C00A38010BD054BC0F1C8001B68C0B25863EA
:10218C0001224FF480710248FEF734BEA4000020F7
:10219C00000C0140C822044B4FF480711B680348AB
:1021AC005A630022FEF726BEA4000020000C01405A
:1021BC0010B50C46FFF7A2FFA04206D2B420FFF7E1
:1021CC00D9FF42F21070FEF703F8BDE81040FFF79C
:1021DC00E1BF000008210148FEF711BE00080140D4
:1021EC00282210B594B000210DEB020000F042FD46
:1021FC00142200210DEB020000F03CFD1022002106
:10220C0001A800F037FD4FF4803301220B93022418
:10221C0012934FF4E0130AA80A920E92119413939E
:10222C00FEF7F2FD00B1FEE70F2305934FF4806338
:10223C0007900990214605A806940893FEF7ACFF79
:10224C0000B1FEE74FF4004301A801940393FFF79C
:10225C0075F800B1FEE714B010BD00002DE9F04197
:10226C009F4D98B0FDF790FFFFF7BAFF10220021A9
:10227C0011A800F0FFFCAB69002243F02003AB6116
:10228C00AB69082103F020030193019BAB699548CE
:10229C0043F00403AB61AB69002403F00403029325
:1022AC00029BAB69012643F00803AB61AB694FF0AD
:1022BC00030803F008030393039BFEF79BFD002226
:1022CC004FF480718848FEF795FD08234FF4807712
:1022DC0011A98448119313941296CDF85080FEF7EF
:1022EC00A9FC11A98048139411971296CDF850802F
:1022FC00FEF7A0FC6B69224633436B616B69214688
:10230C00334000930B20009BFEF7F4FA0B20FEF7F2
:10231C0025FB224621460E20FEF7ECFA0E20FEF796
:10232C001DFB224621460F20FEF7E4FA0F20FEF794
:10233C0015FB6E4D6E4B1194129413942B60EC6044
:10234C006C614FF4C0236C6002242846AF60EB61D3
:10235C002C61FEF7D3F900B1FEE70623119011A909
:10236C00284612961393FDF7F7FF00B1FEE711A96B
:10237C00284611961294FDF7EFFF00B1FEE74FF4DB
:10238C0016525C4B5C49986083E806000C22D860BE
:10239C0018619861D86118465A61FFF723FD05460C
:1023AC0000B1FEE70146102206A800F063FC1C22D7
:1023BC0029460AA80495059500F05CFC1C222946C8
:1023CC0011A800F057FC18234C4C4D4A204684E8C9
:1023DC000C00C823A560E36025616561A561FFF76A
:1023EC00A9FA00B1FEE74FF4805306A920460693E4
:1023FC00FFF708F900B1FEE72046FFF7CFFA00B16E
:10240C00FEE70490059004A92046FFF71BFC02464A
:10241C0000B1FEE760230B900C900D900E900F9086
:10242C0010900AA920460A93FFF72CFB00B1FEE797
:10243C004FF4005311901290139014901590179024
:10244C0011A920461693FFF7D7FB00B1FEE7102623
:10245C0000252A4800F0AAFA324600210AA800F00A
:10246C0009FC1C22294611A80695079500F002FCD0
:10247C004FF08043234C84E8480045F2E473204637
:10248C00A560E3602561A561FFF754FA00B1FEE792
:10249C004FF480530AA920460A93FFF7B3F800B112
:1024AC00FEE72046FFF760FA00B1FEE72046FFF793
:1024BC0075FA00B1FEE70690079006A92046FFF7D3
:1024CC00C1FB00B1FEE7302312901390159004224B
:1024DC0011A920461193FFF7A7FAA8B1FEE700BF98
:1024EC000010024000080140000C014030000020A8
:1024FC0000240140EC01002000380140A400002021
:10250C00002C0140E400002060231193022313935C
:10251C000423082211A920461593FFF7B3FA00B142
:10252C00FEE713900C2211A92046FFF7ABFA00B17D
:10253C00FEE7204600F03AFAFFF7B0FDFFF72AFE5F
:10254C00094911A800F0CCF8002814BF04460A244D
:10255C00054D0AA911A82A4600F036F821460AA80A
:10256C00FFF726FEF5E700BFEC0100207047FEE701
:10257C0030B502464FF6FF734AF20105141AA14218
:10258C0001DC98B230BD12F8014B6340082413F003
:10259C00010F4FEA530318BF6B40013CF7D1EDE735
:1025AC000122014B1A707047280000200122014BB8
:1025BC001A70704728000020024A1378012BFCD1B6
:1025CC00704700BF2800002015232DE9F74F03703A
:1025DC00012389464370044608461746FFF78EFDD3
:1025EC004846FFF7A1FD4846FFF7B8FD4FF0050838
:1025FC003A4DA9F1020939F8026F062173BAA3808A
:10260C0098FA98F363802046FFF7B2FFA680002665
:10261C0001222146E080A4F8028038462E70FFF794
:10262C000FFCFFF7C9FF0122A346A11838462E70F4
:10263C00FFF706FCFFF7C0FF3BF8023F0DF1080A5D
:10264C001B0A0AF8013D0122514638462E70FFF74D
:10265C00F7FBFFF7B1FF5946A346012238462E700F
:10266C00FFF7EEFBFFF7A8FF3BF8043F01221B0A24
:10267C00514638468DF807302E70FFF7E1FBFFF717
:10268C009BFF5946A346012238462E70FFF7D8FB14
:10269C00FFF792FF3BF8063F01221B0A51463846D2
:1026AC008DF807302E7008F10108FFF7C9FBFFF712
:1026BC0083FF0122594638462E701FFA88F8FFF71F
:1026CC00BFFBFFF779FF4FF4FA702E70FDF780FD1A
:1026DC00B8F1080F8FD103B0BDE8F08F28000020AF
:1026EC0015232DE9F3470370022343704FF48073D5
:1026FC0080460F468380438006210124FFF738FF74
:10270C000026C246554D4146A8F80600A8F80440DC
:10271C00A8F80240224638462E70FFF791FBFFF7CF
:10272C004BFF08EB0401224638462E70FFF788FB5E
:10273C00FFF742FF3AF8023F0DF108091B0A09F8AE
:10274C00013D2246494638462E70FFF779FBFFF7CC
:10275C0033FF5146C246224638462E70FFF770FBB7
:10276C00FFF72AFF3AF8043F22461B0A494638462F
:10277C008DF807302E70FFF763FBFFF71DFF224625
:10278C00514638462E70FFF75BFBFFF715FF38F804
:10279C00063FDFF8CCA01B0A2246494638468DF886
:1027AC0007302E70FFF74CFBFFF706FF2246414621
:1027BC0038462E70FFF744FBFFF7FEFE22465146CB
:1027CC0038462E70FFF75BFBFFF7F6FE22465146AC
:1027DC0038462E70FFF753FBFFF7EEFE22465146AC
:1027EC0038462E70FFF74BFBFFF7E6FE22465146AC
:1027FC0038462E70FFF743FBFFF7DEFE22464946B4
:10280C0038462E70FFF73BFBFFF7D6FE9DF807808E
:10281C002246494638462E704FEA0818FFF72FFB20
:10282C00FFF7CAFE9DF807302246514638465FFA3C
:10283C0088F848EA03082E70FFF721FBFFF7BCFE6F
:10284C002246514638462E70FFF719FBFFF7B4FEAF
:10285C0040462E7002B0BDE8F08700BF2800002073
:10286C002C0200200E4B82B09A6942F001029A6150
:10287C009A6902F001020092009ADA6942F08052E1
:10288C00DA61DB69074A03F080530193019B5368BB
:10289C0023F0E06343F00073536002B0704700BF55
:1028AC00001002400000014030B5054687B01022F0
:1028BC00002102A800F0DEF92A68214B9A423DD192
:1028CC0003F56C439A691F4842F400729A619A6945
:1028DC0002A902F400720092009A9A691A4C42F012
:1028EC0004029A619B6903F004030193019B032387
:1028FC0002930393FEF79EF9144B204623600023AA
:10290C006360A3608023E3604FF4007323614FF492
:10291C00006363612023A3614FF40053E361FEF76E
:10292C003FF808B1FFF723FE00222C62122011465B
:10293C006562FDF7DFFF1220FEF710F807B030BD1F
:10294C000024014000080140600000200800024003
:10295C0007B50368134A93420CD1134B9A6942F49E
:10296C0000629A619B6903F400630093009B03B0BF
:10297C005DF804FBB3F1804FF9D103F50433DA6948
:10298C001C2042F00102DA610022DB69114603F0DF
:10299C0001030193019BFDF7ADFF1C20FDF7DEFF4A
:1029AC00E5E700BF002C01400010024010B50446C2
:1029BC0086B01022002102A800F05CF923681C4AA2
:1029CC00934215D11B4B02A99A691B4842F0040291
:1029DC009A619B6903F004030093009B4FF480738E
:1029EC000293022303930593FEF724F906B010BD5E
:1029FC00B3F1804FFAD103F504339A6902A942F07E
:102A0C0008029A619B690D4803F008030193019B2E
:102A1C0040F608430293022303930593FEF70AF949
:102A2C00074A536843F0E06343F440735360DDE7B7
:102A3C00002C01400010024000080140000C014035
:102A4C000000014070B5064686B01022002102A895
:102A5C0000F010F93268324B9A425ED103F55843BC
:102A6C009A6902A942F480429A619A692D4802F44B
:102A7C0080420092009A9A69002542F004029A6101
:102A8C009B69294C03F004030193019B4FF40073E1
:102A9C0002930223039303230593FEF7CBF84FF421
:102AAC008063204802A9029303950495FEF7C2F8AF
:102ABC001E4B204684E828008023E3604FF400532B
:102ACC00A56025616561A561E361FDF769FF08B14A
:102ADC00FFF74DFD4FF0100C154B74636662154CEF
:102AEC00802284E808100023A36023616361202303
:102AFC00A3614FF400532046E260E361FDF750FF01
:102B0C0008B1FFF734FD00222520346311466662BC
:102B1C00FDF7F0FE2520FDF721FF06B070BD00BFCC
:102B2C000038014000080140A80100205800024074
:102B3C0044000240640100207047FEE7FEE7FEE718
:102B4C00FEE7704770477047FDF730BB0148FDF753
:102B5C00DDBF00BF600000200148FDF7D7BF00BFFC
:102B6C00640100200148FDF7D1BF00BFA80100207F
:102B7C000148FDF76DBB00BF300000200148FEF797
:102B8C00FEBD00BFE40000200148FFF7DFB900BF25
:102B9C00EC0100200F4B1A6842F001021A605968D0
:102BAC000D4A0A405A601A6822F0847222F480326C
:102BBC001A601A6822F480221A605A6822F4FE0203
:102BCC005A604FF41F029A604FF00062034B9A60F8
:102BDC00704700BF001002400000FFF800ED00E05D
:102BEC00002103E00B4B5B58435004310A480B4B5C
:102BFC0042189A42F6D30A4A02E0002342F8043BF8
:102C0C00084B9A42F9D3FFF7C5FF00F00FF8FFF716
:102C1C0025FB7047E82C0008000000200C00002069
:102C2C000C00002060030020FEE7000070B50025BA
:102C3C000C4E0D4CA41BA410A54209D100F022F897
:102C4C0000250A4E0A4CA41BA410A54205D170BD48
:102C5C0056F8253098470135EEE756F82530984759
:102C6C000135F2E7E02C0008E02C0008E02C00080D
:102C7C00E42C000803460244934200D1704703F849
:102C8C00011BF9E7F8B500BFF8BC08BC9E467047BD
:0C2C9C00F8B500BFF8BC08BC9E467047AD
:102CA80002030405060708090A0B0C0D0E0F101085
:102CB80002030405060708090A0B0C0D0E0F101075
:102CC80000000000000000000102030406070809D4
:082CD8000000000001020304EA
:042CE00031010008B6
:042CE4000D010008D6
:0C2CE800010000001000000000A24A04DF
:0400000508002BEDD7
:00000001FF
