:020000040800F2
:1000000000500020112500087524000877240008FE
:10001000792400087B2400087D24000800000000EB
:100020000000000000000000000000007F24000825
:1000300081240008000000008324000885240008B3
:100040005925000859250008592500085925000898
:100050005925000859250008592500085925000888
:100060005925000859250008592500088924000849
:10007000592500085925000895240008A1240008E6
:100080005925000859250008AD2400085925000805
:100090005925000859250008592500085925000848
:1000A0005925000859250008592500085925000838
:1000B0005925000859250008592500085925000828
:1000C0005925000859250008592500085925000818
:1000D00059250008B92400085925000859250008A9
:1000E000592500085925000859250008000000007E
:1000F0000000000000000000000000000000000000
:0C01000000000000000000005FF808F1A3
:10010C0010B5054C237833B9044B13B10448AFF345
:10011C0000800123237010BD0C00002000000000A3
:10012C00B425000808B5034B1BB103490348AFF3D2
:10013C00008008BD0000000010000020B42500085D
:10014C0038B50E4B054618784FF47A73B3FBF0F3C1
:10015C000B4A1068B0FBF3F000F0A6FB044658B94C
:10016C000F2D09D8024629464FF0FF3000F05CFBFA
:10017C00044B20461D6038BD012038BD0000002016
:10018C000800002004000020074A08B5136803206B
:10019C0043F01003136000F035FB0020FFF7D0FF95
:1001AC0002F02AF8002008BD00200240034A044B4C
:1001BC0011681B780B441360704700BF2C000020A3
:1001CC0000000020014B1868704700BF2C00002075
:1001DC0038B50446FFF7F6FF0546631C1EBF044BFB
:1001EC001B78E418FFF7EEFF401B8442FAD838BDA9
:1001FC0000000020436A10B59A6A12F0500F1BD110
:10020C009A6A42F400729A621A68926802F4602246
:10021C00B2F5602F0CD1DA6852B99A6A22F4807266
:10022C009A629A6AD2045EBF9A6A42F001029A629A
:10023C00184601F0CFFD10BD1B6ABDE810401B6BCA
:10024C00184708B5406A01F0B9FD08BD704703684E
:10025C0010B55A680446900627D51A68910724D51C
:10026C00A26AD2065EBFA26A42F40072A2629A68C7
:10027C0002F46022B2F5602F10D1E26872B95A68AC
:10028C0022F020025A60A36A23F48073A362A36A4B
:10029C00DB045EBFA36A43F00103A362204601F0B6
:1002AC0099FD6FF0120223681A6023685A681006D1
:1002BC0030D51A6851072DD5A26AD2065EBFA26A44
:1002CC0042F40052A2629A6802F4E042B2F5E04FA6
:1002DC000AD05A68500516D49A6802F46022B2F516
:1002EC00602F10D1E26872B95A6822F080025A600D
:1002FC00A36A23F48053A362A36AD9055EBFA36AE1
:10030C0043F00103A362204600F07AFA6FF00C026E
:10031C0023681A6023685A6852060DD51B68DB07E0
:10032C000AD5A36A204643F48033A362FFF78EFFFD
:10033C006FF0010223681A6010BD7047406A08B55F
:10034C00836A43F040038362C36A43F00403C362CD
:10035C00FFF7F3FF08BD0000002373B5019390F87D
:10036C002430012B74D001234D6880F82430062DE5
:10037C0002684FEA85030C6825D82B441F25566B61
:10038C00053B9D4026EA050504FA03F32B43536312
:10039C00092C4FEA44038D682FD907262344D168D2
:1003AC001E3B9E4021EA060105FA03F30B43D36082
:1003BC00A4F11003012B2BD90023002280F8242058
:1003CC00184602B070BD0C2D0BD82B441F25166B94
:1003DC00233B9D4026EA050504FA03F32B431363E4
:1003EC00D6E72B441F25D66A413B9D4026EA0505DE
:1003FC0004FA03F32B43D362CAE70726116923449B
:10040C009E4021EA060105FA03F30B431361CFE783
:10041C00104B9A4216D193681B02CDD49368102CC2
:10042C0043F400039360C7D10B4B0C4A1B68B3FB1E
:10043C00F2F20A2353430193019B002BBCD0019B86
:10044C00013BF8E7836A43F0200383620123B4E79E
:10045C000223B5E7002401400800002040420F00B1
:10046C00002373B50193036804469A68D20702D53A
:10047C00002002B070BD9A6842F001029A60124BE3
:10048C00124A1B68B3FBF2F30193019BC3B9FFF74C
:10049C0099FE064623689D6815F00105E8D1FFF723
:1004AC0091FE801B0228F5D9A36A84F8245043F0EE
:1004BC001003A362E36A012043F00103E362D8E76F
:1004CC00019B013BE0E700BF0800002040420F0009
:1004DC002DE9D8419046404B026804469A420F469B
:1004EC0002D03E498A4203D15B6813F4702F6ED15F
:1004FC0094F82430012B6CD00123204684F824304E
:10050C00FFF7AEFF064600285DD1A06A216820F4F3
:10051C007060324B20F0010040F480709942A06270
:10052C0004D12D4A536813F4702F3ED1A36A23F4DF
:10053C008013A3624B685A0505D5A36A23F4405374
:10054C0043F48053A362A36A206A13F4805318BF48
:10055C00E36A3A4618BF23F00603E362002384F8EB
:10056C0024301F4B4C3183621E4BC3621E4B036302
:10057C006FF0020341F84C3C51F8443C43F4807357
:10058C0041F8443C434600F0D5F923689A6802F4DC
:10059C006022B2F5602F9A680CBF42F4A00242F4BC
:1005AC0080129A603046BDE8D881A36A43F4801368
:1005BC00A36253685B0541BFA06A20F4405040F42D
:1005CC008050A062BFE7002384F82430EAE70126BC
:1005DC00E8E70226E6E700BF0024014000280140BE
:1005EC00010200084F0200084903000838B50368EF
:1005FC0004469A68D20701D4002038BD9A6822F0CC
:10060C0001029A60FFF7DEFD054623689B68DB0755
:10061C00F2D5FFF7D7FD401B0228F6D9A36A0120BB
:10062C0043F01003A362E36A43F00103E36238BDB5
:10063C0070B50446002871D0836A23B9C36280F870
:10064C00243001F0FBFD2046FFF7D0FFA36A13F026
:10065C00100FA36A64D1002862D1E16923F4885396
:10066C00626823F0020343F002030A43A168A36209
:10067C00E368B1F5807F42EA430238D0012914BF08
:10068C0006464FF480766569012D07D1002B30D1D9
:10069C00A369013B46EA433545F400662368B1F58E
:1006AC00807F5D6825F4694545EA06055D609E68B6
:1006BC001D4D05EA060545EA02059D6001D001299C
:1006CC0020D1216901390905DD6A25F4700529431A
:1006DC00D9629968154B0B409A4215D10023E362FD
:1006EC00A36A23F0030343F00103A36270BD0E461B
:1006FC00C9E7A36A43F02003A362E36A43F0010352
:10070C00E362CBE70021DFE7A36A23F0120343F097
:10071C001003A362E36A43F00103E362012070BD9E
:10072C0043F01003A362F9E7FDF7E1FFFE0E1FFF94
:10073C00002373B5019390F824300446012B5AD052
:10074C00012380F82430FFF751FF0546002832D1F1
:10075C00A36A022023F4885323F0020343F002031C
:10076C00A362264B1E6800F0FBFDB6FBF0F04000C8
:10077C000190019B1BBB2046FFF772FE2268936819
:10078C0043F008039360FFF71DFD064623689A6843
:10079C00120718D49A6842F004029A60FFF712FD0F
:1007AC00064623689B685B071FD4A36A23F00303E8
:1007BC0043F00103A362002384F8243012E0019B70
:1007CC00013B0193D5E7FFF7FDFC801B0A28DDD91F
:1007DC00A36A012523F0120343F01003A362002344
:1007EC0084F82430284602B070BDFFF7EBFC801B68
:1007FC000A28D6D9ECE70225F4E700BF0800002050
:10080C0070470000074A0002D36800F4E06023F44C
:10081C00E0631B041B0C43F0BF6343F4003303433E
:10082C00D360704700ED00E0174B30B5DC68C4F3C3
:10083C000224C4F10703251D042B28BF0423062D15
:10084C004FF0010598BF002405FA03F303F1FF33C1
:10085C0088BF033C1940A14005FA04F4013C224036
:10086C00002842EA01024FEA0212AFBF00F16040D9
:10087C00064B00F00F00D2B2A5BFD2B200F561401A
:10088C001A5480F8002330BD00ED00E014ED00E0B8
:10089C000123420900F01F0003FA00F0014B43F85A
:1008AC002200704700E100E00138B0F1807F0AD2ED
:1008BC00F021064B064A586082F8231000200722CC
:1008CC0098601A6070470120704700BF10E000E08C
:1008DC0000ED00E010B530B314220168134B8468AE
:1008EC000B44B3FBF2F39B000364114B0A68C36324
:1008FC00436822F47F522343C46822F0300223431E
:10090C00046923434469234384692343C46923430F
:10091C0013430B600122002380F82120836380F8AD
:10092C002030184610BD012010BD00BFF8FFFDBFE0
:10093C0000000240F0B590F82040012C35D0012485
:10094C0090F8215080F82040A5424FF000064FF05F
:10095C00020428D180F82140046886632668076C5D
:10096C0026F001062660C66BBD4075606360436867
:10097C000568102BC36A0BBFA260A160E160E26046
:10098C004BB1236843F00E0323602B68002043F027
:10099C0001032B60F0BD236823F00403236023685C
:1009AC0043F00A03F0E780F820600220F0BD00005D
:1009BC0090F8213010B5022B03D00423836301205F
:1009CC0010BD03681A6822F00E021A601A6822F031
:1009DC0001021A60184A93421FD0143293421ED05F
:1009EC00143293421DD0143293421DD014329342D0
:1009FC001DD0143293420CBF4FF480134FF0807310
:100A0C000E4A00245360012380F82130436B80F898
:100A1C0020407BB19847204610BD0123F0E71023FE
:100A2C00EEE74FF48073EBE74FF48053E8E74FF4B5
:100A3C008033E5E7184610BD080002400000024074
:100A4C0070B40425C66B026C34680368954025426B
:100A5C00196832D04D0730D51A6896065EBF1A68F1
:100A6C0022F004021A603E4A934219D01432934287
:100A7C0018D01432934217D01432934217D0143238
:100A8C00934217D0143293420CBF4FF480034FF0B3
:100A9C008063344A5360C36A002B5ED070BC184725
:100AAC000423F6E74023F4E74FF48063F1E74FF4B7
:100ABC008043EEE74FF48023EBE702259540254277
:100ACC0035D08D0733D51A68940606D41A6822F0EF
:100ADC000A021A60012280F82120214A934219D07F
:100AEC001432934218D01432934217D014329342DA
:100AFC0017D01432934217D0143293420CBF4FF4D8
:100B0C0000134FF00073174A5360002380F8203015
:100B1C00836AC1E70223F6E72023F4E74FF400735E
:100B2C00F1E74FF40053EEE74FF40033EBE7082501
:100B3C009540254211D009070FD5196821F00E01F7
:100B4C001960012303FA02F27260836380F821308A
:100B5C00002380F82030036B9EE770BC704700BF09
:100B6C0008000240000002402DE9F74F0022164613
:100B7C00654BDFF8A4E1DFF8A4C14FF001080C6865
:100B8C0008FA06F808EA0404A0457FD14D68122D36
:100B9C0000F0AF8000F28880022D00F0A7807CD896
:100BAC00002D00F08E80012D00F09E804FF00F097B
:100BBC00FF2C93BF824606F18045083DD0F800B06B
:100BCC0092BFB500D0F804B0AD0009FA05F82BEAD5
:100BDC00080802FA05F588BF00F1040A48EA050581
:100BEC00CAF80050D1F804A01AF0805F4ED0474DDF
:100BFC00464FAD6926F0030845F00105BD61BD699E
:100C0C0008F1804805F00105019508F5803806F0DB
:100C1C00030B019D4FEA8B0BD8F8085009FA0BF91E
:100C2C0025EA09093A4DA84268D005F58065A84225
:100C3C0066D005F58065A84264D005F58065A842AC
:100C4C000CBF0325042505FA0BF545EA0905C8F880
:100C5C0008501D681AF4803F14BF2543A5431D603E
:100C6C005D681AF4003F14BF2543A5435D609D6881
:100C7C001AF4801F14BF2543A5439D60DD681AF448
:100C8C00001F14BF2C4325EA0404DC600136102E2F
:100C9C007FF473AF03B0BDE8F08F032D22D0112D7C
:100CAC0084D1CA68043281E71A4FBD4209D012D8E8
:100CBC00DFF86C904D4504D009F580394D457FF433
:100CCC0075AF8A68C2B1012A0CBFC0F81080C0F899
:100CDC00148008226AE77545F3D06545F1D0DFF83A
:100CEC004490EBE7002261E7CA685FE7CA68083204
:100CFC005CE7CA680C3259E7042257E70025A2E7E3
:100D0C000125A0E702259EE70004014000100240E7
:100D1C0000080140000021100000311000003210CA
:100D2C0000001110000022100AB101617047090483
:100D3C00FBE7C3685940C1607047000003682DE9A8
:100D4C00F341DB07054610D42B689F075ED42B6854
:100D5C00190700F195802B685A0700F1BF80EA69EA
:100D6C00002A40F02D81002014E0904C636803F0C1
:100D7C000C03042B07D0636803F00C03082B0CD175
:100D8C006368DE0309D523689C03DDD56B68002BF3
:100D9C00DAD1012002B0BDE8F0816B68B3F5803F79
:100DAC0010D1236843F480332360FFF70BFA064617
:100DBC0023689803C8D4FFF705FA801B6428F7D979
:100DCC000320E7E79BB9236823F48033236023686F
:100DDC0023F480232360FFF7F5F906462368990373
:100DEC00B2D5FFF7EFF9801B6428F7D9E8E7B3F524
:100DFC00A02F236803D143F480232360D1E723F48D
:100E0C0080332360236823F48023CDE7674C636829
:100E1C0013F00C0F07D0636803F00C03082B10D1F0
:100E2C006368DA030DD423689B0702D52B69012B69
:100E3C00AFD123686A6923F0F80343EAC203236045
:100E4C0085E72A695A4B6AB101221A60FFF7BAF991
:100E5C00064623689F07ECD4FFF7B4F9801B0228E1
:100E6C00F7D9ADE71A60FFF7ADF906462368980786
:100E7C007FF56DAFFFF7A6F9801B0228F6D99FE727
:100E8C00AA694A4C4B4BDAB101221A60FFF79AF966
:100E9C000646636A9B070DD54FF4FA52464B1B6806
:100EAC00B3FBF2F3019300BF019B5A1E0192002B7E
:100EBC00F9D150E7FFF786F9801B0228E9D97FE7C3
:100ECC001A60FFF77FF90646636A9F077FF543AF09
:100EDC00FFF778F9801B0228F6D971E7334CE369E8
:100EEC00D80024D40127E36943F08053E361E3691C
:100EFC0003F080530093009B304E3368D90518D50E
:100F0C00EB68012B26D1236A43F001032362FFF720
:100F1C0059F941F288368046236A9B073FD5002F4A
:100F2C003FF41DAFE36923F08053E36117E700271B
:100F3C00E2E7336843F480733360FFF743F980468C
:100F4C003368DA05DCD4FFF73DF9A0EB0800642820
:100F5C00F6D935E7ABB9236A41F2883823F001039F
:100F6C002362236A23F004032362FFF72BF906465E
:100F7C00236A9807D3D5FFF725F9801B4045F7D98D
:100F8C001EE7052B236A03D143F004032362BAE75F
:100F9C0023F001032362236A23F00403B6E7FFF76F
:100FAC0011F9A0EB0800B042B6D909E700100240D5
:100FBC0000004242800442420800002000700040C1
:100FCC00224C636803F00C03082B3FF4E2AE0023C1
:100FDC001F4E022A33602BD1FFF7F4F80746236823
:100FEC0099011FD42B6AB3F5803F05D16268A968BB
:100FFC0022F400320A436260696A62680B4322F48D
:10100C0074121343636001233360FFF7DBF805466A
:10101C0023689A013FF5A7AEFFF7D4F8401B0228CE
:10102C00F6D9CDE6FFF7CEF8C01B0228D7D9C7E614
:10103C00FFF7C8F8054623689B017FF594AEFFF7D0
:10104C00C1F8401B0228F6D9BAE600BF00100240D6
:10105C006000424230B5194B87B002AC03F1100569
:10106C00224618685968083303C2AB421446F7D1BC
:10107C0001238DF80430022311498DF805304B689B
:10108C0003F00C02082A17D1C3F3834206A80244CA
:10109C00DB0312F8102C0CD54B680A48C3F3404301
:1010AC00504306AA134413F8143CB0FBF3F007B0FA
:1010BC0030BD05485043FAE70248F8E7CC25000854
:1010CC000010024000127A0000093D00544A2DE93C
:1010DC00F0411368054603F007038B420E462AD3F2
:1010EC0029688C0734D4CA0747D44D4A136803F0D7
:1010FC0007039E42C0F082802A684A4C12F0040F0B
:10110C0040F08780130706D563682A6923F460537F
:10111C0043EAC2036360FFF79DFF6368424AC3F36F
:10112C000313D35CD840414B18600020FFF708F83C
:10113C000020BDE8F081136823F007030B43136014
:10114C00136803F007039942CAD00120BDE8F0816F
:10115C00344B11F0040F1EBF5A6842F4E0625A601F
:10116C00080742BF5A6842F460525A605A68A8682D
:10117C0022F0F00202435A60B5E76A68294C012A52
:10118C0023681CD113F4003FDFD0636841F2883828
:10119C0023F0030313436360FFF714F86B680746EF
:1011AC00012B14D1636803F00C03042B9DD0FFF7C3
:1011BC0009F8C01B4045F5D90320BDE8F081022A8F
:1011CC0002D113F0007FDFE713F0020FDCE7022BF4
:1011DC000FD1636803F00C03082B86D0FEF7F2FFE7
:1011EC00C01B4045F5D9E7E7FEF7ECFFC01B4045B7
:1011FC00E2D8636813F00C0FF6D176E7136823F08E
:10120C00070333431360136803F007039E429CD11A
:10121C0072E76368E96823F4E0630B43636071E78A
:10122C000020024000100240EC25000808000020BD
:10123C00044B054A5B68C3F30223D35C034A106872
:10124C00D840704700100240FC2500080800002020
:10125C00044B054A5B68C3F3C223D35C034A106892
:10126C00D840704700100240FC2500080800002000
:10127C0003682DE9F341D907054620D5354CE369C0
:10128C00DA0032D40127E36943F08053E361E36968
:10129C0003F080530193019B2F4E3368DB0526D559
:1012AC00236A13F4407336D1236A6A6823F44073BB
:1012BC00134323621FB1E36923F08053E361286871
:1012CC00830706D5234AA968536823F440430B438C
:1012DC00536010F010001BD01E4AE96853680020C0
:1012EC0023F480030B43536012E00027D4E73368E8
:1012FC0043F480733360FEF765FF80463368D8058E
:10130C00CED4FEF75FFFA0EB08006428F6D90320CB
:10131C0002B0BDE8F0816A6802F440729342C3D017
:10132C0001200E4A236A1060002023F440711060E3
:10133C002162D907B8D5FEF745FF41F28838064639
:10134C00236A9A07B0D4FEF73DFF801B4045F7D9BE
:10135C00DDE700BF00100240007000404004424234
:10136C0070B50446354B86B002AD03F110062A4623
:10137C0018685968083303C2B3421546F7D10123E4
:10138C008DF8043002239C428DF8053047D0102C88
:10139C0017D0012C4FD140F20231294A136A19405F
:1013AC00B1F5817F44D003F44073B3F5007F2DD1A8
:1013BC0049F64040536A13F0020F08BF002006B0F4
:1013CC0070BD1F4B5968186810F08070F7D0C1F3CE
:1013DC00834206A8024412F8100CCA0341BF5A6893
:1013EC0006A9C2F34042521844BF12F8141C154A05
:1013FC005B684CBFB2FBF1F2134A5B0202FB00F0DC
:10140C00DDD403234000B0FBF3F0D8E7B3F5407F05
:10141C0011D113684FF2244013F4003FCDE7FFF7CE
:10142C0017FF074B5B68C3F3813301335B00EAE7BB
:10143C004FF40040C3E70020C1E700BFDC250008E3
:10144C000010024000127A0000093D00036A70B5DA
:10145C0023F001030362036A446882690D6822F079
:10146C0073022A438D6823F002032B430A4DA842D2
:10147C000BD1CD6823F008032B438E694D6924F4FE
:10148C004074354323F004032C43446082614A6862
:10149C004263036270BD00BF002C0140036A70B54B
:1014AC0023F480730362036A4468C2690D6822F0F6
:1014BC0073022A438D6823F4007343EA05230B4D12
:1014CC00A8420DD1CD6823F4006343EA05238E694D
:1014DC004D6924F44054354323F4806344EA0514E5
:1014EC004460C2614A68C263036270BD002C014053
:1014FC00036A30B523F480530362036A4468C269FB
:10150C000D6822F4E64242EA05228D6823F400536A
:10151C0043EA0533064DA84202BF4D6924F48044CA
:10152C0044EA85144460C2614A680264036230BDB7
:10153C00002C0140704790F83C3070B5012B4FF0F7
:10154C0002031CD0012280F83D30036880F83C2057
:10155C009A6822F47F4222F077029A600A68402A45
:10156C0079D019D8102A00F093800AD8002A00F0FC
:10157C008980012380F83D30002380F83C301846E8
:10158C0070BD202A00F08A80302AF2D19A6822F0AD
:10159C00700242F0370236E0702A36D01BD8502A3F
:1015AC0042D0602AE5D11C6A4D6824F01004CE6844
:1015BC001C6299691A6A21F4704122F0A00242EA75
:1015CC00051241EA063199611A629A6822F070029A
:1015DC0042F0670217E0B2F5805F11D0B2F5005F00
:1015EC00C7D18A684D689C68C9682A4324F47F4433
:1015FC0042EA012222439A609A6842F4804202E055
:10160C009A6822F007029A60B3E78A684D689C6872
:10161C00C9682A4324F47F4442EA012222439A6097
:10162C009A6842F07702EEE74C68CE68196A1D6A38
:10163C0021F00A0125F001051D629A69214322F06F
:10164C00F00242EA06129A6119629A6822F070025C
:10165C0042F05702D7E74C68CE68196A1D6A21F030
:10166C000A0125F001051D629A69214322F0F0025E
:10167C0042EA06129A6119629A6822F0700242F0EC
:10168C004702C0E79A6822F0700242F00702BAE7FC
:10169C009A6822F0700242F01702B4E79A6822F0BE
:1016AC00700242F02702AEE71A4A036890420AD051
:1016BC00B0F1804F07D0A2F59432904203D002F5DE
:1016CC008062904215D14A6823F070031343114A8B
:1016DC0090420AD0B0F1804F07D0A2F594329042DC
:1016EC0003D002F58062904203D1CA6823F44073A0
:1016FC0013434A6923F08003134303608B68C3626E
:10170C000B688362034B984204BF0B69036301238C
:10171C0043617047002C014010B50446A0B190F80D
:10172C003D3003F0FF021BB980F83C2000F0DCFDDB
:10173C000223206884F83D30211DFFF7B5FF0123FB
:10174C00002084F83D3010BD012010BD10B50446BA
:10175C00A0B190F83D3003F0FF021BB980F83C209B
:10176C00FFF7E8FE0223206884F83D30211DFFF7C7
:10177C009BFF0123002084F83D3010BD012010BDDB
:10178C00036A70B523F010030362036A446882692C
:10179C000D6822F4E64242EA05228D6823F020030C
:1017AC0043EA05130B4DA8420DD1CD6823F08003FD
:1017BC0043EA05138E694D6924F44064354323F0E4
:1017CC00400344EA8504446082614A688263036290
:1017DC0070BD00BF002C014038B590F83C30044679
:1017EC00012B4FF0020025D0012384F83D0084F832
:1017FC003C300C2A18D8DFE802F0071717171E1711
:10180C0017172F17171740002068FFF71FFE2368C4
:10181C0009699A6942F008029A619A6922F00402F5
:10182C009A619A690A439A610123002084F83D3039
:10183C0084F83C0038BD2068FFF7A2FF23680969D3
:10184C009A6942F400629A619A6922F480629A6100
:10185C009A6942EA0122E6E72068FFF71FFE236837
:10186C000969DA6942F00802DA61DA6922F00402E5
:10187C00DA61DA690A43DA61D6E72068FFF738FEE5
:10188C0023680969DA6942F40062DA61DA6922F4E0
:10189C008062DA61DA6942EA0122ECE710B50124D0
:1018AC00036A8C4023EA04030362036A8A401A43E6
:1018BC00026210BD10B5044601220068FFF7EEFF6E
:1018CC002368064A0020934202BF5A6C42F400423D
:1018DC005A641A6842F001021A6010BD002C0140D3
:1018EC0090F83C30012B1FD0CB688A6823F44073EE
:1018FC0013434A6823F4806313430A6823F4006398
:10190C0013430A6923F4805313434A6923F40053A5
:10191C0013438A6923F4404313430268536400233E
:10192C0080F83C30184670470220704790F83C30E5
:10193C0010B5012B4FF0020318D080F83D3003682E
:10194C000C685A68496822F070025A605A6822433F
:10195C005A609A6822F080029A609A680A439A60E8
:10196C00012380F83D30002380F83C30184610BD30
:10197C000368DA6822F49072DA605A6922F0010284
:10198C005A61202380F83A30704700002DE9F04767
:10199C000568C2682B69016923F4405313432B611A
:1019AC008368EA680B43416922F4B05222F00C02BE
:1019BC000B431343EB606B69826923F4407313434D
:1019CC006B61404B81469D424FF0190446D1FFF7A5
:1019DC003FFC04FB00F3D9F804604FF06408B60038
:1019EC00B3FBF6F3B3FBF8F31E01FFF731FC6043D6
:1019FC00D9F804309B00B0FBF3F7FFF729FC6043E8
:101A0C00D9F804309B00B0FBF3F3B3FBF8F308FBFD
:101A1C0013731B013233B3FBF8F303F0F007FFF73A
:101A2C0017FC6043D9F804209200B0FBF2FAFFF7E0
:101A3C000FFC6043D9F804309B00B0FBF3F3B3FB0D
:101A4C00F8F308FB13A31B013233B3FBF8F303F0D9
:101A5C000F033B433344AB60BDE8F087FFF7E8FB73
:101A6C0004FB00F3D9F804604FF06408B600B3FB34
:101A7C00F6F3B3FBF8F31E01FFF7DAFB6043D9F87A
:101A8C0004309B00B0FBF3F7FFF7D2FB6043D9F8AF
:101A9C0004309B00B0FBF3F3B3FBF8F308FB1373B8
:101AAC001B013233B3FBF8F303F0F007FFF7C0FB75
:101ABC006043D9F804209200B0FBF2FAFFF7B8FBB0
:101ACC00B7E700BF0038014010B5044640B390F8AA
:101ADC00393003F0FF021BB980F8382000F04AFCC3
:101AEC002423226884F83930D368204623F4005329
:101AFC00D360FFF74BFF236800201A6922F4904251
:101B0C001A615A6922F02A025A61DA6842F40052C8
:101B1C00DA602023E06384F8393084F83A3010BD61
:101B2C00012010BD90F83930202B18D1A9B1A2B1E9
:101B3C0090F83830012B12D0C284828400232122E9
:101B4C0001620168C36380F83920CA6880F83830B4
:101B5C0042F08002CA60184670470120704702208C
:101B6C00704790F83A3010B5222B36D18368016952
:101B7C00B3F5805F0268836A23D15268E9B9C2F376
:101B8C00080223F8022B8362C48D013CA4B2C485E5
:101B9C008CB90368DA6822F02002DA60DA6822F481
:101BAC008072DA605A6922F001025A61202380F8AF
:101BBC003A3000F099FA002010BDD2B223F8012B74
:101BCC00E1E721B9591C526881621A70DCE752684E
:101BDC00591C816202F07F02F7E7022010BD7047AA
:101BEC00036870B51A6804461607D9685D6907D191
:101BFC0096065AD58D0658D5BDE87040FFF7B1BF93
:101C0C0015F0010502D111F4907F4ED0D30705D504
:101C1C00CE0542BFE36B43F00103E363500704D5E9
:101C2C001DB1E36B43F00203E363930704D51DB1CD
:101C3C00E36B43F00403E363160704D51DB1E36BB8
:101C4C0043F00803E363E36B002B66D0950604D5E1
:101C5C00880602D52046FFF784FF236820465D697D
:101C6C00E26B110702D415F040051AD0FFF780FE85
:101C7C0023685A69520610D55A69606B22F04002EB
:101C8C005A6150B1254B4363FEF792FE002844D0B5
:101C9C00606BBDE87040436B18472046FFF79FFF11
:101CAC0070BDFFF79CFFE56370BD160627D50D06CA
:101CBC0025D594F83920212A2FD1A268B2F5805F5E
:101CCC00226A17D11188C1F308015960216979B9C9
:101CDC0002322262E28C013A92B2E284EAB9DA6808
:101CEC0022F08002DA60DA6842F04002DA6070BDFD
:101CFC000132EEE7511C216212785A60EAE7500675
:101D0C000BD54A0609D5DA68204622F04002DA6083
:101D1C00202384F8393000F0E1F970BD2D1D000846
:101D2C0008B50023406AC385C384FFF758FF08BD7C
:101D3C00174BF0B519461A78012AFCD100226FF026
:101D4C0063064FF480579646124C134D192391F8A5
:101D5C0000C0BCF1010F01D01046F0BD013B13F0E7
:101D6C00FF03F4D11A4694F800C09C4435F81CC00B
:101D7C000133042B6244F6D1D3085B009BB273434E
:101D8C0093FBF7F36433038081F800E0DEE700BFD8
:101D9C0028000020290000203000002010B5044647
:101DAC00FEF7C6FC2046BDE8104008220149FEF7AC
:101DBC008FBB00BF30000020FFF77CBD0022034B1F
:101DCC001A700122024B1A70704700BF29000020C4
:101DDC00280000200422034B1A700122024B1A70B7
:101DEC00704700BF290000202800002008B5054CD2
:101DFC0020464FF40051FEF79CFF3220FEF7E8F925
:101E0C00F6E700BF00100140282210B594B0002165
:101E1C000DEB020000F0C0FB142200210DEB0200C0
:101E2C0000F0BAFB1022002101A800F0B5FB4FF422
:101E3C00803301220B93022412934FF4E0130AA86F
:101E4C000A920E9211941393FEF778FF08B1FFF7E4
:101E5C00CDFF0F2305934FF4806307900990214623
:101E6C0005A806940893FFF731F90028EFD14FF439
:101E7C00004301A801940393FFF7FAF90028E6D177
:101E8C0014B010BD80B5012502264FF400589CB04B
:101E9C007D4CFEF779F9FFF7B7FF1022002115A84A
:101EAC0000F07AFBA369012243F01003A361A3693C
:101EBC004FF4005103F010030293029BA369734883
:101ECC0043F02003A361A36903F020030393039B56
:101EDC00A36943F00403A361A36903F0040304930F
:101EEC00049BFEF721FF002238216948FEF71CFFF6
:101EFC0015A9664817961896CDF854801695FEF7D6
:101F0C0033FE38231593032315A9614817961893AC
:101F1C001695FEF729FE0022636911462B43636177
:101F2C0063690B202B400193019BFEF77DFC0B207A
:101F3C00FEF7AEFC00220E201146FEF775FC0E20BB
:101F4C00FEF7A6FC00220F201146FEF76DFC0F20B9
:101F5C00FEF79EFC4F4E504A002332604FF4002295
:101F6C003046079308930993B360F3607361F26191
:101F7C0073603561FEF75CFB08B1FFF737FF079024
:101F8C0007A9304608950995FEF7E6F90028F4D123
:101F9C004FF41653414D4249A86085E80A000C23C2
:101FAC00E8602861A861E86128466B61FFF78CFD49
:101FBC0007460028E1D1014610220AA800F0ECFAED
:101FCC001C2239460EA80597069700F0E5FA1C224C
:101FDC00394615A800F0E0FA1823324C324A204654
:101FEC0084E80C00C823A760E36027616761A761E0
:101FFC00FFF792FB0028C0D14FF480530AA920466A
:10200C000A93FFF798FA0028B7D12046FFF79EFBFA
:10201C000028B2D10590069005A92046FFF786FC52
:10202C0002460028A9D160230E9304230F90109030
:10203C001190139014900EA920461293FFF7CCFB2D
:10204C0000289AD1159016901790189019901B9003
:10205C0015A92046CDF86880FFF742FC07460028FA
:10206C008BD1204600F054F920463946FFF7A4FEE8
:10207C00236830465F63FFF791FE2A460EA915A828
:10208C0000F040F8F9E700BF0010024000100140DA
:10209C00000801408400002000240140F8000020CA
:1020AC00003801407C010020002C014030B5024674
:1020BC004FF6FF734AF20105141AA14201DC98B2E3
:1020CC0030BD12F8014B6340082413F0010F4FEAA6
:1020DC00530318BF6B40013CF7D1EDE70122014BD4
:1020EC001A7070472A0000200122014B1A707047A9
:1020FC002A000020024A1378012BFCD1704700BF44
:10210C002A0000202DE9F347152301270D4604462C
:10211C000370477008469046FFF70AFE2D8820464C
:10212C006BBAA3804FF4A06306216380FFF7BEFF58
:10213C0005230026A246A5802E4D63802146E08013
:10214C003A4640462E70FFF7EDFCFFF7D3FFE1193E
:10215C003A4640462E70FFF7E5FCFFF7CBFF3AF806
:10216C00023F0DF108091B0A09F8013D3A464946A0
:10217C0040462E70FFF7D6FCFFF7BCFF5146A24637
:10218C003A4640462E70FFF7CDFCFFF7B3FF3AF806
:10219C00043F3A461B0A494640468DF807302E70DC
:1021AC00FFF7C0FCFFF7A6FF3A46514640462E709B
:1021BC00FFF7B8FCFFF79EFF34F8063F3A461B0AC0
:1021CC00494640468DF807302E70FFF7ABFCFFF701
:1021DC0091FF3A46214640462E70FFF7A3FCFFF7CD
:1021EC0089FF4FF4FA702E70FDF7F2FF02B0BDE8D4
:1021FC00F08700BF2A0000200E4B82B09A6942F093
:10220C0001029A619A6902F001020092009ADA695D
:10221C0042F08052DA61DB69074A03F08053019384
:10222C00019B536823F0E06343F00073536002B0EA
:10223C00704700BF001002400000014030B5054659
:10224C0087B01022002102A800F0A6F92A68224BC0
:10225C009A423ED103F56C439A69204842F40072CD
:10226C009A619A6902A902F400720092009A9A6922
:10227C001B4C42F004029A619B6903F00403019326
:10228C00019B0123029303230393FEF76DFC154B73
:10229C002046236000236360A3608023E3604FF437
:1022AC00807323614FF4806363612023A3614FF437
:1022BC000053E361FEF70EFB08B1FFF797FD002218
:1022CC002C62122011466562FEF7AEFA1220FEF760
:1022DC00DFFA07B030BD00BF002401400008014008
:1022EC0038010020080002400268084B82B09A4274
:1022FC000AD103F564439A6942F400629A619B69BE
:10230C0003F400630193019B02B07047002C014061
:10231C0010B5044686B01022002102A800F03CF94A
:10232C002268114B9A421CD103F564439A6902A9A5
:10233C0042F004029A619B690C4803F00403019378
:10234C00019B80230293022303930593FEF70CFC5D
:10235C00074A536823F0C00343F0E06343F04003A3
:10236C00536006B010BD00BF002C014000080140B6
:10237C000000014070B5064686B01022002102A86C
:10238C0000F00AF93268324B9A425ED103F5584399
:10239C009A6902A942F480429A619A692D4802F422
:1023AC0080420092009A9A69002542F004029A61D8
:1023BC009B69294C03F004030193019B4FF40073B8
:1023CC0002930223039303230593FEF7CDFB4FF4F3
:1023DC008063204802A9029303950495FEF7C4FB81
:1023EC001E4B204684E828008023E3604FF4005302
:1023FC00A56025616561A561E361FEF76BFA08B123
:10240C00FFF7F4FC4FF0100C154B74636662154C1F
:10241C00802284E808100023A360236163612023D9
:10242C00A3614FF400532046E260E361FEF752FAD9
:10243C0008B1FFF7DBFC00222520346311466662ED
:10244C00FEF7F2F92520FEF723FA06B070BD00BFA7
:10245C000038014000080140B40000205800024040
:10246C0044000240400000207047FEE7FEE7FEE714
:10247C00FEE7704770477047FDF798BE0148FEF7BE
:10248C00DFBA00BF380100200148FEF7D9BA00BFFF
:10249C00400000200148FEF7D3BA00BFB400002072
:1024AC000148FDF7D4BE00BF840000200148FFF7AF
:1024BC0097BB00BFF80000200F4B1A6842F00102D6
:1024CC001A6059680D4A0A405A601A6822F08472E0
:1024DC0022F480321A601A6822F480221A605A6838
:1024EC0022F4FE025A604FF41F029A604FF0006211
:1024FC00034B9A60704700BF001002400000FFF8C9
:10250C0000ED00E0002103E00B4B5B58435004311D
:10251C000A480B4B42189A42F6D30A4A02E00023AF
:10252C0042F8043B084B9A42F9D3FFF7C5FF00F081
:10253C000FF8FFF7A7FC70470C26000800000020DE
:10254C000C0000200C000020BC010020FEE7000065
:10255C0070B500250C4E0D4CA41BA410A54209D13E
:10256C0000F022F800250A4E0A4CA41BA410A54228
:10257C0005D170BD56F8253098470135EEE756F871
:10258C00253098470135F2E7042600080426000898
:10259C00042600080826000803460244934200D192
:1025AC00704703F8011BF9E7F8B500BFF8BC08BC8D
:1025BC009E467047F8B500BFF8BC08BC9E467047F5
:1025CC0002030405060708090A0B0C0D0E0F101068
:1025DC0002030405060708090A0B0C0D0E0F101058
:1025EC0000000000000000000102030406070809B7
:0825FC000000000001020304CD
:042604003101000898
:042608000D010008B8
:0C260C00010000001000000000A24A04C1
:0400000508002511B9
:00000001FF
